{
  "_format": "hh-sol-artifact-1",
  "contractName": "CampaignDeliveryHistoriesRecord",
  "sourceName": "contracts/CampaignDeliveryHistories.sol",
  "abi": [
    {
      "anonymous": false,
      "inputs": [
        {
          "indexed": false,
          "internalType": "string",
          "name": "campaignId",
          "type": "string"
        },
        {
          "indexed": false,
          "internalType": "bytes32",
          "name": "deliveryHash",
          "type": "bytes32"
        },
        {
          "indexed": false,
          "internalType": "uint256",
          "name": "confirmedAt",
          "type": "uint256"
        }
      ],
      "name": "CampaignDeliveryStored",
      "type": "event"
    },
    {
      "inputs": [
        {
          "internalType": "bytes32",
          "name": "deliveryHash",
          "type": "bytes32"
        }
      ],
      "name": "getCampaignDelivery",
      "outputs": [
        {
          "components": [
            {
              "internalType": "string",
              "name": "campaignId",
              "type": "string"
            },
            {
              "internalType": "bytes32",
              "name": "deliveryHash",
              "type": "bytes32"
            },
            {
              "internalType": "uint256",
              "name": "confirmedAt",
              "type": "uint256"
            }
          ],
          "internalType": "struct CampaignDeliveryHistoriesRecord.CampaignDelivery",
          "name": "",
          "type": "tuple"
        }
      ],
      "stateMutability": "view",
      "type": "function"
    },
    {
      "inputs": [],
      "name": "getCampaignDeliveryCount",
      "outputs": [
        {
          "internalType": "uint256",
          "name": "",
          "type": "uint256"
        }
      ],
      "stateMutability": "view",
      "type": "function"
    },
    {
      "inputs": [],
      "name": "getCampaignDeliveryHashes",
      "outputs": [
        {
          "internalType": "bytes32[]",
          "name": "",
          "type": "bytes32[]"
        }
      ],
      "stateMutability": "view",
      "type": "function"
    },
    {
      "inputs": [
        {
          "internalType": "string",
          "name": "campaignId",
          "type": "string"
        },
        {
          "internalType": "bytes32",
          "name": "deliveryHash",
          "type": "bytes32"
        },
        {
          "internalType": "uint256",
          "name": "confirmedAt",
          "type": "uint256"
        }
      ],
      "name": "storeCampaignDelivery",
      "outputs": [],
      "stateMutability": "nonpayable",
      "type": "function"
    }
  ],
  "bytecode": "0x608080604052346100165761065f908161001c8239f35b600080fdfe608080604052600436101561001357600080fd5b60003560e01c9081631bb2f75a1461028657508063367739f114610268578063a245cd6b146100ff5763d16595a31461004b57600080fd5b346100fa5760003660031901126100fa576040518060018054928381526020809101809460016000527fb10e2d527612073b26eecdfd717e6a320cf44b4afac2b0732d9fcbe2b7fa0cf69060005b8181106100e757505050836100af9103846105cd565b60405192818401908285525180915260408401949160005b8281106100d45785870386f35b83518752958101959281019284016100c7565b8254845292840192918501918501610099565b600080fd5b346100fa576020806003193601126100fa57600060408051610120816105b1565b60608152828482015201526004356000526000815260406000209060405191610148836105b1565b6040518154816000610159836105ef565b9283835260019087600182169182600014610248575050600114610209575b5061018992509593949503826105cd565b815260026001830154928483019384520154926040820193845260405193849282845251936060838501528451928360808601526000955b8487106101f057505060a094506000858486010152516040840152516060830152601f80199101168101030190f35b86810182015188880160a00152958101958795506101c1565b8691508560005281600020906000915b858310610230575050610189935082010187610178565b80548388018501528694508893909201918101610219565b60ff19168582015261018995151560051b85010192508991506101789050565b346100fa5760003660031901126100fa576020600154604051908152f35b346100fa5760603660031901126100fa576004359067ffffffffffffffff82116100fa57366023830112156100fa5767ffffffffffffffff8260040135116100fa573660248360040135840101116100fa57602435600052600060205260026040600020015461056f57506040516102fd816105b1565b6040516103186004840135601f01601f1916602001826105cd565b6004830135808252602484016020830137600060208460040135830101528152602435602082015260443560408201526024356000526000602052604060002090805180519067ffffffffffffffff821161049d5761037784546105ef565b601f811161052b575b50602090601f83116001146104be579180600294926040946000926104b3575b50508160011b916000199060031b1c19161784555b602081015160018501550151910155600154906801000000000000000082101561049d576001820180600155821015610487577fd863155abc3edf9d629a74d17233a3091dbfc6fbddbf74cbfe8ba6bd237612ca916001600052602435907fb10e2d527612073b26eecdfd717e6a320cf44b4afac2b0732d9fcbe2b7fa0cf601556080604051809260608252806004013560608301528060040135602482018484013760008382600401358401015260243560208301526044356040830152601f8019916004013501168101030190a1005b634e487b7160e01b600052603260045260246000fd5b634e487b7160e01b600052604160045260246000fd5b0151905087806103a0565b90601f198316918560005260206000209260005b818110610513575092600192859260409660029896106104fa575b505050811b0184556103b5565b015160001960f88460031b161c191690558780806104ed565b929360206001819287860151815501950193016104d2565b846000526020600020601f840160051c810160208510610568575b601f830160051c8201811061055c575050610380565b60008155600101610546565b5080610546565b62461bcd60e51b815260206004820181905260248201527f43616d706169676e2064656c697665727920616c7265616479206578697374736044820152606490fd5b6060810190811067ffffffffffffffff82111761049d57604052565b90601f8019910116810190811067ffffffffffffffff82111761049d57604052565b90600182811c9216801561061f575b602083101461060957565b634e487b7160e01b600052602260045260246000fd5b91607f16916105fe56fea26469706673582212202ba52d4dfad5ac93cd8e90b5f95a86422b8ea2102954486de4b156b151fe481164736f6c63430008180033",
  "linkReferences": {},
  "deployedLinkReferences": {}
}