{
  "_format": "hh-sol-artifact-1",
  "contractName": "CampaignDeliveryHistoriesRecord",
  "sourceName": "contracts/CampaignDeliveryHistories.sol",
  "abi": [
    {
      "anonymous": false,
      "inputs": [
        {
          "indexed": false,
          "internalType": "string",
          "name": "campaignId",
          "type": "string"
        },
        {
          "indexed": false,
          "internalType": "string",
          "name": "title",
          "type": "string"
        },
        {
          "indexed": false,
          "internalType": "string",
          "name": "note",
          "type": "string"
        },
        {
          "indexed": false,
          "internalType": "bytes32",
          "name": "deliveryHash",
          "type": "bytes32"
        },
        {
          "indexed": false,
          "internalType": "uint256",
          "name": "confirmedAt",
          "type": "uint256"
        }
      ],
      "name": "CampaignDeliveryStored",
      "type": "event"
    },
    {
      "inputs": [
        {
          "internalType": "bytes32",
          "name": "deliveryHash",
          "type": "bytes32"
        }
      ],
      "name": "getCampaignDelivery",
      "outputs": [
        {
          "components": [
            {
              "internalType": "string",
              "name": "campaignId",
              "type": "string"
            },
            {
              "internalType": "string",
              "name": "title",
              "type": "string"
            },
            {
              "internalType": "string",
              "name": "note",
              "type": "string"
            },
            {
              "internalType": "bytes32",
              "name": "deliveryHash",
              "type": "bytes32"
            },
            {
              "internalType": "uint256",
              "name": "confirmedAt",
              "type": "uint256"
            }
          ],
          "internalType": "struct CampaignDeliveryHistoriesRecord.CampaignDelivery",
          "name": "",
          "type": "tuple"
        }
      ],
      "stateMutability": "view",
      "type": "function"
    },
    {
      "inputs": [],
      "name": "getCampaignDeliveryCount",
      "outputs": [
        {
          "internalType": "uint256",
          "name": "",
          "type": "uint256"
        }
      ],
      "stateMutability": "view",
      "type": "function"
    },
    {
      "inputs": [],
      "name": "getCampaignDeliveryHashes",
      "outputs": [
        {
          "internalType": "bytes32[]",
          "name": "",
          "type": "bytes32[]"
        }
      ],
      "stateMutability": "view",
      "type": "function"
    },
    {
      "inputs": [
        {
          "internalType": "string",
          "name": "campaignId",
          "type": "string"
        },
        {
          "internalType": "string",
          "name": "title",
          "type": "string"
        },
        {
          "internalType": "string",
          "name": "note",
          "type": "string"
        },
        {
          "internalType": "bytes32",
          "name": "deliveryHash",
          "type": "bytes32"
        },
        {
          "internalType": "uint256",
          "name": "confirmedAt",
          "type": "uint256"
        }
      ],
      "name": "storeCampaignDelivery",
      "outputs": [],
      "stateMutability": "nonpayable",
      "type": "function"
    }
  ],
  "bytecode": "0x60808060405234610016576109d6908161001c8239f35b600080fdfe608080604052600436101561001357600080fd5b60003560e01c908163367739f114610792575080634139689a146101fa578063a245cd6b146100ff5763d16595a31461004b57600080fd5b346100fa5760003660031901126100fa576040518060018054928381526020809101809460016000527fb10e2d527612073b26eecdfd717e6a320cf44b4afac2b0732d9fcbe2b7fa0cf69060005b8181106100e757505050836100af910384610837565b60405192818401908285525180915260408401949160005b8281106100d45785870386f35b83518752958101959281019284016100c7565b8254845292840192918501918501610099565b600080fd5b346100fa576020806003193601126100fa5760405160a0916101208261081b565b60006080606093848152848482015284604082015282858201520152600435600052600081526040600020906101e96040519361015c8561081b565b610165846108fb565b8552610173600185016108fb565b838601908152610185600286016108fb565b91604087019283526101d96101c36004600389015498848b01998a5201549660808a019788526040519a8b9a828c5251918b015260c08a01906107db565b925192601f1993848a83030160408b01526107db565b92519187840301908701526107db565b915160808401525160a08301520390f35b346100fa5760a03660031901126100fa5760043567ffffffffffffffff81116100fa5761022b9036906004016107ad565b9060243567ffffffffffffffff81116100fa5761024c9036906004016107ad565b60449391933567ffffffffffffffff81116100fa5761026f9036906004016107ad565b91906064359283600052600060205260046040600020015461074e576040516102978161081b565b6102a2368789610859565b81526102af36858a610859565b60208201526102bf368385610859565b60408201528460608201526084356080820152846000526000602052604060002090805180519067ffffffffffffffff82116104da57819061030185546108a0565b601f81116106fe575b50602090601f831160011461069257600092610687575b50508160011b916000199060031b1c19161782555b602081015180519067ffffffffffffffff82116104da57819061035c60018601546108a0565b601f8111610634575b50602090601f83116001146105c2576000926105b7575b50508160011b916000199060031b1c19161760018301555b604081015180519067ffffffffffffffff82116104da576103b860028501546108a0565b601f8111610570575b50602090601f83116001146104fb579180600494926080946000926104f0575b50508160011b916000199060031b1c19161760028501555b606081015160038501550151910155600154680100000000000000008110156104da5760018101806001558110156104c4577f0ee70be048d5a67646754302c57a77db007264c4aa8db54b67930acc0dc93409976104b194866104a39360016000527fb10e2d527612073b26eecdfd717e6a320cf44b4afac2b0732d9fcbe2b7fa0cf60155610495604051998a9960a08b5260a08b01916108da565b9188830360208a01526108da565b9185830360408701526108da565b90606083015260843560808301520390a1005b634e487b7160e01b600052603260045260246000fd5b634e487b7160e01b600052604160045260246000fd5b015190508d806103e1565b906002850160005260206000209160005b601f19851681106105585750926004949260019260809583601f1981161061053f575b505050811b0160028501556103f9565b015160001960f88460031b161c191690558d808061052f565b9192602060018192868501518155019401920161050c565b600285016000526020600020601f840160051c8101602085106105b0575b601f830160051c820181106105a45750506103c1565b6000815560010161058e565b508061058e565b015190508b8061037c565b9250600185016000526020600020906000935b601f1984168510610619576001945083601f19811610610600575b505050811b016001830155610394565b015160001960f88460031b161c191690558b80806105f0565b818101518355602094850194600190930192909101906105d5565b909150600185016000526020600020601f840160051c810160208510610680575b90849392915b601f830160051c82018110610671575050610365565b6000815585945060010161065b565b5080610655565b015190508b80610321565b9250846000526020600020906000935b601f19841685106106e3576001945083601f198116106106ca575b505050811b018255610336565b015160001960f88460031b161c191690558b80806106bd565b818101518355602094850194600190930192909101906106a2565b909150846000526020600020601f840160051c810160208510610747575b90849392915b601f830160051c8201811061073857505061030a565b60008155859450600101610722565b508061071c565b606460405162461bcd60e51b815260206004820152602060248201527f43616d706169676e2064656c697665727920616c7265616479206578697374736044820152fd5b346100fa5760003660031901126100fa576020906001548152f35b9181601f840112156100fa5782359167ffffffffffffffff83116100fa57602083818601950101116100fa57565b919082519283825260005b848110610807575050826000602080949584010152601f8019910116010190565b6020818301810151848301820152016107e6565b60a0810190811067ffffffffffffffff8211176104da57604052565b90601f8019910116810190811067ffffffffffffffff8211176104da57604052565b92919267ffffffffffffffff82116104da5760405191610883601f8201601f191660200184610837565b8294818452818301116100fa578281602093846000960137010152565b90600182811c921680156108d0575b60208310146108ba57565b634e487b7160e01b600052602260045260246000fd5b91607f16916108af565b908060209392818452848401376000828201840152601f01601f1916010190565b9060405191826000825461090e816108a0565b9081845260209460019160018116908160001461097e575060011461093f575b50505061093d92500383610837565b565b600090815285812095935091905b81831061096657505061093d935082010138808061092e565b8554888401850152948501948794509183019161094d565b9250505061093d94925060ff191682840152151560051b82010138808061092e56fea2646970667358221220275eb7318e3fe6bebf49451882cf746318f2051be4b66588b44f4a80c7c0160f64736f6c63430008180033",
  "linkReferences": {},
  "deployedLinkReferences": {}
}